:100000000C942D000C94BB000C94BB000C94BB0012
:100010000C94BB000C94BB000C94BB000C94BB0074
:100020000C94BB000C94BB000C94BB000C94970088
:100030000C94BB000C94BB000C94BB000C94BB0054
:100040000C94BB000C94BB000C94BB000C94BB0044
:100050000C94BB0000600063800011241FBECFE53C
:10006000D4E0DEBFCDBFE4E5F0E040E017C0B591DD
:10007000A59135912591059107FD0CC0959185912C
:10008000EF01F92FE82F05900D92A217B307D9F7CA
:10009000FE0104C01D92A217B307E1F7E935F4078A
:0E00A00031F70E9457000C94A800F894FFCF8F
:1000AE008EEF8ABB9FEF97BB94BB81BB80E487B971
:1000BE0080EC86B918BA15BA86E080BD89E189B997
:1000CE0010BC86E880BD80E98AB978942FE38DE074
:1000DE0093E0215080409040E1F700C00000C0ED59
:1000EE00349B07C095B180916200891708F4A89AD5
:1000FE00C6B980916000909161001816190634F40B
:10010E006091620080E090E00E94B3002FE38DE0EA
:10011E0093E0215080409040E1F700C00000E0CF16
:10012E008F939F93F8948CB18093620088BB81E08B
:10013E0090E0909361008093600078949F918F91EE
:02014E00189502
:10015000EC010E94C0000E94BF00CE010E94C100BD
:06016000CE010E94BD006B
:10016600E199FECF9FBB8EBB6DBBE29AE19A0895E3
:040176000C940000E5
:04017A000E9455008A
:02017E000895E2
:020180000895E0
:020182000895DE
:00000001FF
