:100000000C942A000C9483000C9483000C948300BD
:100010000C9483000C9483000C9483000C94830054
:100020000C9483000C9483000C9483000C94830044
:100030000C9483000C9483000C9483000C94830034
:100040000C9483000C9483000C9483000C94830024
:100050000C94830011241FBECFE5D4E0DEBFCDBFDA
:0C0060000E9436000C946900F894FFCF59
:10006C008EEF8ABB9FEF97BB94BB81BB80E487B9B3
:10007C0080EC86B918BA15BA2FE33DE043E0215065
:10008C0030404040E1F700C0000062E080E090E0CA
:10009C000E94740080E090E00E947C0090ED349B04
:1000AC0008C088BB25B130E0233031050CF0A89A8C
:1000BC0096B92FE33DE043E0215030404040E1F75A
:0600CC0000C00000ECCFB3
:1000D200EC010E9488000E948700CE010E948900E4
:0600E200CE010E94850022
:1000E800E199FECF9FBB8EBB6DBBE29AE19A089562
:0E00F800E199FECF9FBB8EBBE09A8DB30895B9
:040106000C94000055
:04010A000E9434001B
:02010E00089552
:02011000089550
:0201120008954E
:00000001FF
