:100000000C942D000C94FA000C94FA000C94FA0055
:100010000C94FA000C94FA000C94FA000C94FA0078
:100020000C94FA000C94FA000C94FA000C94A700BB
:100030000C94FA000C94FA000C94FA000C94FA0058
:100040000C94FA000C94FA000C94FA000C94FA0048
:100050000C94FA0000600065800011241FBECFE5FB
:10006000D4E0DEBFCDBFE4E5F0E040E017C0B591DD
:10007000A59135912591059107FD0CC0959185912C
:10008000EF01F92FE82F05900D92A217B307D9F7CA
:10009000FE0104C01D92A217B307E1F7E935F4078A
:0E00A00031F70E9457000C94E000F894FFCF57
:1000AE008EEF8ABB9FEF97BB94BB81BB80E687B96F
:1000BE0080EC86B918BA15BA86E080BD89E189B997
:1000CE0010BC86E880BD80E98AB91092620060E0BB
:1000DE0080E090E00E94EB0078942FE38DE093E0B7
:1000EE00215080409040E1F700C0000080E090E099
:1000FE000E94F30080936200C0ED349B07C095B15F
:10010E0080916200891708F4A89AC6B980916000A0
:10011E0090916100029754F06091620080E090E04F
:10012E000E94EB0010926100109260002FE38DE0B0
:10013E0093E0215080409040E1F700C00000DDCFF9
:10014E002F932FB72F938F939F93F89480916000E6
:10015E0090916100019690936100809360000297E8
:10016E0054F48CB18093630088BB809160009091B1
:10017E0061000297BCF08CB18093640088BB8091C3
:10018E006300282F2295220F220F207C20936300DC
:10019E0090916400892F8695869580936400822BBA
:1001AE008093620078949F918F912F912FBF2F9102
:0201BE00189592
:1001C000EC010E94FF000E94FE00CE010E9400018F
:0601D000CE010E94FC00BC
:1001D600E199FECF9FBB8EBB6DBBE29AE19A089573
:0E01E600E199FECF9FBB8EBBE09A8DB30895CA
:0401F4000C94000067
:0401F8000E9455000C
:0201FC00089564
:0201FE00089562
:0202000008955F
:00000001FF
