:100000000C942D000C94F1000C94F1000C94F10070
:100010000C94F1000C94F1000C94F1000C94F1009C
:100020000C94F1000C94F1000C94F1000C94AE00CF
:100030000C94F1000C94F1000C94F1000C94F1007C
:100040000C94F1000C94F1000C94F1000C94F1006C
:100050000C94F10000600063800011241FBECFE506
:10006000D4E0DEBFCDBFE4E5F0E040E017C0B591DD
:10007000A59135912591059107FD0CC0959185912C
:10008000EF01F92FE82F05900D92A217B307D9F7CA
:10009000FE0104C01D92A217B307E1F7E935F4078A
:0E00A00031F70E9457000C94D700F894FFCF60
:1000AE008EEF8ABB9FEF97BB94BB81BB80E487B971
:1000BE0080EC86B918BA15BA86E080BD89E189B997
:1000CE0010BC86E880BD80E98AB978942FE38DE074
:1000DE0093E0215080409040E1F700C0000080E0A6
:1000EE0090E00E94EA0081E090E00E94EA00C0EDFC
:1000FE00349B07C095B180916200891708F4A89AC5
:10010E00C6B98091600090916100019731F46091C1
:10011E00620080E090E00E94E20080916000909189
:10012E006100029751F46091620081E090E00E94BC
:10013E00E20010926100109260002FE38DE093E0D8
:0E014E00215080409040E1F700C00000D1CF6A
:10015C001F921FB61F9211248F939F93F894809136
:10016C006000909161001816190654F08CB18093C0
:10017C00620088BB81E090E0909361008093600006
:10018C008CB18093620088BB82E090E09093610018
:10019C008093600078949F918F911F901FBE1F9049
:0201AC001895A4
:1001AE00EC010E94F6000E94F500CE010E94F700BD
:0601BE00CE010E94F300D7
:1001C400E199FECF9FBB8EBB6DBBE29AE19A089585
:0E01D400E199FECF9FBB8EBBE09A8DB30895DC
:0401E2000C94000079
:0401E6000E9455001E
:0201EA00089576
:0201EC00089574
:0201EE00089572
:00000001FF
