:100000000C942D000C9405010C9405010C94050131
:100010000C9405010C9405010C9405010C94050148
:100020000C9405010C9405010C9405010C94B2008C
:100030000C9405010C9405010C9405010C94050128
:100040000C9405010C9405010C9405010C94050118
:100050000C94050100600065800011241FBECFE5EF
:10006000D4E0DEBFCDBFE4E5F0E040E017C0B591DD
:10007000A59135912591059107FD0CC0959185912C
:10008000EF01F92FE82F05900D92A217B307D9F7CA
:10009000FE0104C01D92A217B307E1F7E935F4078A
:0E00A00031F70E9457000C94EB00F894FFCF4C
:1000AE008EEF8ABB9FEF97BB94BB81BB80E687B96F
:1000BE0080EC86B918BA15BA86E080BD89E189B997
:1000CE0010BC86E880BD80E98AB980E28093620028
:1000DE0060E280E090E00E94F60078942FE38DE0DD
:1000EE0093E0215080409040E1F700C0000080E096
:1000FE0090E00E94FE0080936200C0ED349B11C020
:10010E0095B180916200891758F4A89A2FE387E77A
:10011E009BE1215080409040E1F700C00000A8987C
:10012E00C6B98091600090916100029754F0609181
:10013E00620080E090E00E94F60010926100109242
:10014E0060002FE38DE093E0215080409040E1F776
:06015E0000C00000D3CF39
:100164002F932FB72F938F939F93F89480916000D0
:1001740090916100019690936100809360000297D2
:1001840054F48CB18093630088BB8091600090919B
:1001940061000297BCF08CB18093640088BB8091AD
:1001A4006300282F2295220F220F207C20936300C6
:1001B40090916400892F8695869580936400822BA4
:1001C4008093620078949F918F912F912FBF2F91EC
:0201D40018957C
:1001D600EC010E940A010E940901CE010E940B0156
:0601E600CE010E9407019A
:1001EC00E199FECF9FBB8EBB6DBBE29AE19A08955D
:0E01FC00E199FECF9FBB8EBBE09A8DB30895B4
:04020A000C94000050
:04020E000E945500F5
:0202120008954D
:0202140008954B
:02021600089549
:00000001FF
