:100000000C942A000C9485000C9485000C948500B7
:100010000C9485000C9485000C9485000C9485004C
:100020000C9485000C9485000C9485000C9477004A
:100030000C9485000C9485000C9485000C9485002C
:100040000C9485000C9485000C9485000C9485001C
:100050000C94850011241FBECFE5D4E0DEBFCDBFD8
:0C0060000E9436000C946C00F894FFCF56
:10006C008EEF8ABB9FEF97BB94BB81BB80E487B9B3
:10007C0080EC86B918BA15BA86E080BD89E189B9D9
:10008C0010BC86E880BD80E98AB978942FE33DE006
:10009C0083E0215030408040E1F700C0000080E058
:1000AC0090E00E947E0020ED349B06C085B190E06C
:1000BC0003970CF0A89A26B99FE33DE083E091509A
:0C00CC0030408040E1F700C00000EECFA3
:1000D800EC010E948A000E948900CE010E948B00D8
:0600E800CE010E9487001A
:0E00EE008F93F8948CB188BB78948F911895FD
:0E00FC00E199FECF9FBB8EBBE09A8DB30895B5
:04010A000C94000051
:04010E000E94340017
:0201120008954E
:0201140008954C
:0201160008954A
:00000001FF
