:100000000C942D000C949A000C949E000C949E006D
:100010000C949E000C949E000C9492000C949E00F4
:100020000C949E000C949E000C949E000C949E00D8
:100030000C949E000C949E000C9457000C949E000F
:100040000C949E000C949E000C949E000C949E00B8
:100050000C949E0000600062800011241FBECFE55A
:10006000D4E0DEBFCDBFE4E5F0E040E017C0B591DD
:10007000A59135912591059107FD0CC0959185912C
:10008000EF01F92FE82F05900D92A217B307D9F7CA
:10009000FE0104C01D92A217B307E1F7E935F4078A
:0E00A00031F70E946F000C948700F894FFCF98
:1000AE008F938FB78F939F93F89484B18093610051
:1000BE0095B1909360008ABD809160008BBD89B729
:1000CE00806189BF78949F918F918FBF8F91189582
:1000DE008EEF8ABB83EF87BB82E781BB83E085BF50
:1000EE0090E49BBF88E886B99FBD99E09EBD10BC89
:1000FE0099E199B91BB896E890BD8AB97894FFCF6B
:10010E00EC010E94A3000E94A200CE010E94A40056
:06011E00CE010E94A000CA
:100124008F93F894C09A8FEB8CB978948F9118952B
:08013400F894369A78941895AE
:04013C000C9400001F
:040140000E945500C4
:0201440008951C
:0201460008951A
:02014800089518
:00000001FF
