:100000000C942D000C949F000C94A3000C94A3005E
:100010000C94A3000C94A3000C9487000C94A300F0
:100020000C94A3000C94A3000C94A3000C94A300C4
:100030000C94A3000C94A3000C9457000C94A30000
:100040000C94A3000C94A3000C94A3000C94A300A4
:100050000C94A30000600062800011241FBECFE555
:10006000D4E0DEBFCDBFE4E5F0E040E017C0B591DD
:10007000A59135912591059107FD0CC0959185912C
:10008000EF01F92FE82F05900D92A217B307D9F7CA
:10009000FE0104C01D92A217B307E1F7E935F4078A
:0E00A00031F70E946F000C949400F894FFCF8B
:1000AE008F938FB78F939F93F89484B18093610051
:1000BE0095B1909360008ABD809160008BBD89B729
:1000CE00806189BF78949F918F918FBF8F91189582
:1000DE008EEF8ABB83EF87BB82E581BB83E085BF52
:1000EE0090E49BBF88E886B99FBD99E09EBD10BC89
:1000FE0099E199B91BB896E890BD8AB97894FFCF6B
:10010E001F921FB61F921124F894C09A86991CB89C
:0A011E0078941F901FBE1F901895E3
:10012800EC010E94A8000E94A700CE010E94A9002D
:06013800CE010E94A500AB
:08013E00F894369A78941895A4
:040146000C94000015
:04014A000E945500BA
:02014E00089512
:02015000089510
:0201520008950E
:00000001FF
